:100000000C942A000C9434000C9434000C943400AA
:100010000C9434000C9434000C9434000C94340090
:100020000C9434000C9434000C9434000C94340080
:100030000C9434000C9434000C9434000C94340070
:100040000C9434000C9434000C9434000C94340060
:100050000C94340011241FBECFE5D8E0DEBFCDBF25
:100060000E9484040C9448060C940000CF93DF9304
:10007000CDB7DEB78AE390E021E0FC01208387E37F
:1000800090E02FE4FC01208384E390E02FEFFC015B
:10009000208381E390E022E2FC0120838BE390E067
:1000A000FC01108288E390E0FC01108285E390E07F
:1000B000FC01108282E390E0FC0110820000DF91DD
:1000C000CF910895CF93DF9300D00F92CDB7DEB7D5
:1000D00089836A834B838981882F90E083309105DF
:1000E00009F4B3C0843091050CF0E5C0823091056D
:1000F00009F475C0833091050CF0DDC0009719F04C
:100100000197B9F1D8C08B81882F90E0009719F042
:100110000197C1F0D0C08AE390E0FC018081482FB4
:100120008A81282F30E081E090E002C0880F991F7B
:100130002A95E2F78095242F28238AE390E0FC019A
:10014000208316C08AE390E0FC018081482F8A81D9
:10015000282F30E081E090E002C0880F991F2A9597
:10016000E2F7242F282B8AE390E0FC012083000093
:10017000A2C08B81882F90E0009719F00197C1F001
:100180009AC087E390E0FC018081482F8A81282F64
:1001900030E081E090E002C0880F991F2A95E2F7D5
:1001A0008095242F282387E390E0FC01208316C04C
:1001B00087E390E0FC018081482F8A81282F30E07E
:1001C00081E090E002C0880F991F2A95E2F7242F62
:1001D000282B87E390E0FC01208300006CC08B811A
:1001E000882F90E0009719F00197C1F064C084E374
:1001F00090E0FC018081482F8A81282F30E081E047
:1002000090E002C0880F991F2A95E2F78095242F6D
:10021000282384E390E0FC01208316C084E390E06F
:10022000FC018081482F8A81282F30E081E090E016
:1002300002C0880F991F2A95E2F7242F282B84E308
:1002400090E0FC012083000036C08B81882F90E075
:10025000009719F00197C1F02DC081E390E0FC01F7
:100260008081482F8A81282F30E081E090E002C011
:10027000880F991F2A95E2F78095242F282381E380
:1002800090E0FC01208316C081E390E0FC018081B6
:10029000482F8A81282F30E081E090E002C0880F4B
:1002A000991F2A95E2F7242F282B81E390E0FC0187
:1002B00020830000000000000F900F900F90DF914E
:1002C000CF910895CF93DF9300D00F92CDB7DEB7D3
:1002D00089836A834B838981882F90E083309105DD
:1002E00009F4B3C0843091050CF0EBC08230910565
:1002F00009F475C0833091050CF0E3C0009719F044
:100300000197B9F1DEC08B81882F90E00097C9F08A
:10031000019709F0CFC08BE390E0FC018081482F6A
:100320008A81282F30E081E090E002C0880F991F79
:100330002A95E2F7242F282B8BE390E0FC01208301
:1003400017C08BE390E0FC018081482F8A81282F21
:1003500030E081E090E002C0880F991F2A95E2F713
:100360008095242F28238BE390E0FC01208300005C
:10037000A1C08B81882F90E00097C9F0019709F008
:100380009BC088E390E0FC018081482F8A81282F60
:1003900030E081E090E002C0880F991F2A95E2F7D3
:1003A000242F282B88E390E0FC01208317C088E3EA
:1003B00090E0FC018081482F8A81282F30E081E085
:1003C00090E002C0880F991F2A95E2F78095242FAC
:1003D000282388E390E0FC01208300006DC08B811E
:1003E000882F90E00097C9F0019709F067C085E376
:1003F00090E0FC018081482F8A81282F30E081E045
:1004000090E002C0880F991F2A95E2F7242F282B2D
:1004100085E390E0FC01208317C085E390E0FC01B8
:100420008081482F8A81282F30E081E090E002C04F
:10043000880F991F2A95E2F78095242F282385E3BA
:1004400090E0FC012083000039C08B81882F90E070
:100450000097C1F00197A1F582E390E0FC01808153
:10046000482F8A81282F30E081E090E002C0880F79
:10047000991F2A95E2F7242F282B82E390E0FC01B4
:10048000208317C082E390E0FC018081482F8A819D
:10049000282F30E081E090E002C0880F991F2A9554
:1004A000E2F78095242F282382E390E0FC0120834B
:1004B000000006C0000005C0000003C0000001C02D
:1004C000000000000F900F900F90DF91CF910895E2
:1004D000CF93DF9300D0CDB7DEB789836A8389815C
:1004E000882F90E08330910501F1843091051CF54F
:1004F00082309105A1F083309105ECF4009719F05A
:10050000019739F018C08AE390E02A81FC0120832A
:1005100012C087E390E02A81FC0120830CC084E3B1
:1005200090E02A81FC01208306C081E390E02A81CB
:10053000FC012083000000000F900F90DF91CF910D
:100540000895CF93DF9300D0CDB7DEB789836A8358
:100550008981882F90E08330910501F184309105E5
:100560001CF582309105A1F083309105ECF40097E1
:1005700019F0019739F018C08BE390E02A81FC0153
:10058000208312C088E390E02A81FC0120830CC004
:1005900085E390E02A81FC01208306C082E390E09D
:1005A0002A81FC012083000000000F900F90DF9152
:1005B000CF910895CF93DF9300D00F92CDB7DEB7E0
:1005C0008A836B838FEF89838A81882F90E08330C1
:1005D000910509F443C0843091050CF050C082307D
:1005E000910559F1833091050CF049C0009719F03D
:1005F000019791F044C089E390E0FC018081882F4D
:1006000090E02B81222F30E002C0959587952A95A6
:10061000E2F78170898333C086E390E0FC0180813A
:10062000882F90E02B81222F30E002C0959587958E
:100630002A95E2F78170898322C083E390E0FC0170
:100640008081882F90E02B81222F30E002C0959589
:1006500087952A95E2F78170898311C080E390E045
:10066000FC018081882F90E02B81222F30E002C096
:10067000959587952A95E2F7817089830000898195
:100680000F900F900F90DF91CF910895CF93DF934C
:1006900000D0CDB7DEB789836A838981882F90E047
:1006A0008330910509F452C0843091050CF064C088
:1006B00082309105A9F1833091050CF05DC000975F
:1006C00019F00197B9F058C08BE390E0FC018081EC
:1006D000482F8A81282F30E081E090E002C0880F07
:1006E000991F2A95E2F7242F28278BE390E0FC013D
:1006F000208342C088E390E0FC018081482F8A81FA
:10070000282F30E081E090E002C0880F991F2A95E1
:10071000E2F7242F282788E390E0FC0120832CC0F7
:1007200085E390E0FC018081482F8A81282F30E00A
:1007300081E090E002C0880F991F2A95E2F7242FEC
:10074000282785E390E0FC01208316C082E390E037
:10075000FC018081482F8A81282F30E081E090E0E1
:1007600002C0880F991F2A95E2F7242F282782E3D9
:1007700090E0FC012083000000000F900F90DF91BB
:10078000CF910895CF93DF93CDB7DEB78FE590E09B
:10079000FC0120818FE590E02068FC0120830000AF
:1007A000DF91CF910895CF93DF93CDB7DEB78FE57B
:1007B00090E0FC0120818FE590E02F77FC01208301
:1007C0000000DF91CF910895CF93DF9300D0CDB794
:1007D000DEB789836A8341E06A8189810E94620170
:1007E00000000F900F90DF91CF910895CF93DF938A
:1007F00000D0CDB7DEB789836A8340E06A81898102
:100800000E94620100000F900F90DF91CF91089538
:10081000CF93DF9300D00F92CDB7DEB789836A8381
:100820004B834B816A8189810E94620100000F9095
:100830000F900F90DF91CF910895CF93DF9300D069
:10084000CDB7DEB789836A836A8189810E944603B6
:1008500000000F900F90DF91CF910895CF93DF9319
:10086000CDB7DEB78DE290E0FC0120818DE290E013
:100870002F7DFC0120838DE290E0FC0120818DE240
:1008800090E02860FC0120838DE290E0FC01208153
:100890008DE290E02460FC0120838DE290E0FC0179
:1008A00020818DE290E02F7EFC0120838DE290E09C
:1008B000FC0120818DE290E02064FC012083000097
:1008C000DF91CF910895CF93DF930F92CDB7DEB72D
:1008D00089838FE290E02981FC01208300008EE271
:1008E00090E0FC018081881F8827881F882F90E076
:1008F00081709927892B99F38FE290E0FC01808128
:100900000F90DF91CF910895CF93DF93CDB7DEB7EE
:10091000A3970FB6F894DEBF0FBECDBF0E9436007E
:100920000E942E04198281E30E94630489838981D5
:10093000853321F460E080E00E941D0480E090E0B7
:10094000AAEFB4E48A839B83AC83BD8320E030E0CC
:100950004AEF54E46A817B818C819D810E94B305BA
:100960006C8B7D8B8E8B9F8B8C899D89AE89BF898B
:100970008E839F83A887B98720E030E040E85FE35B
:100980006E817F81888599850E942D0588232CF4AE
:1009900081E090E09B878A8754C020E03FEF4FE7DB
:1009A00057E46E817F81888599850E94AE0518166F
:1009B000D4F520E030E040E251E46A817B818C8113
:1009C0009D810E94B305688F798F8A8F9B8F888D58
:1009D000998DAA8DBB8D888B998BAA8BBB8B6889CF
:1009E00079898A899B890E9432056C8F7D8F8E8FD1
:1009F0009F8FAC8DBD8DBB87AA8710C088EC90E01F
:100A00009D878C878C859D850197F1F79D878C87C5
:100A100000008A859B8501979B878A878A859B85AD
:100A2000892B61F719C06E817F81888599850E9425
:100A3000320568A379A38AA39BA388A199A19B8768
:100A40008A878A859B859F878E878E859F8501975C
:100A5000F1F79F878E87000066CF0E94610508F43A
:100A600081E008950E948D0588F09F5798F0B92F76
:100A70009927B751B0F0E1F0660F771F881F991FD3
:100A80001AF0BA95C9F714C0B13091F00E94A705C9
:100A9000B1E008950C94A705672F782F8827B85FD9
:100AA00039F0B93FCCF3869577956795B395D9F72B
:100AB0003EF490958095709561957F4F8F4F9F4F35
:100AC0000895990F0008550FAA0BE0E8FEEF1616DF
:100AD0001706E807F907C0F012161306E407F50732
:100AE00098F0621B730B840B950B39F40A2661F0A6
:100AF000232B242B252B21F408950A2609F4A14049
:100B0000A6958FEF811D811D089557FD9058440FC4
:100B1000551F59F05F3F71F04795880F97FB991F5C
:100B200061F09F3F79F08795089512161306140619
:100B3000551FF2CF4695F1DF08C0161617061806A6
:100B4000991FF1CF86957105610508940895E89481
:100B5000BB2766277727CB0197F908950E94610587
:100B600008F48FEF08950E94C6050C9437060E9482
:100B7000290638F00E94300620F0952311F00C94DD
:100B800020060C94260611240C94A8050E948505C5
:100B900070F3959FC1F3950F50E0551F629FF001D0
:100BA000729FBB27F00DB11D639FAA27F00DB11DE9
:100BB000AA1F649F6627B00DA11D661F829F222772
:100BC000B00DA11D621F739FB00DA11D621F839FF9
:100BD000A00D611D221F749F3327A00D611D231FCF
:100BE000849F600D211D822F762F6A2F11249F571D
:100BF00050409AF0F1F088234AF0EE0FFF1FBB1F20
:100C0000661F771F881F91505040A9F79E3F5105DE
:100C100080F00C9420060C94A8055F3FE4F3983E06
:100C2000D4F3869577956795B795F795E7959F5F88
:100C3000C1F7FE2B880F911D9695879597F908951A
:100C400097F99F6780E870E060E008959FEF80EC7F
:100C5000089500240A941616170618060906089522
:100C600000240A9412161306140605060895092E88
:100C70000394000C11F4882352F0BB0F40F4BF2BF7
:100C800011F460FF04C06F5F7F4F8F4F9F4F089537
:040C9000F894FFCF06
:00000001FF
