:100000000C942A000C9434000C9434000C943400AA
:100010000C9434000C9434000C9434000C94340090
:100020000C9434000C9434000C9434000C94340080
:100030000C9434000C9434000C9434000C94340070
:100040000C9434000C9434000C9434000C94340060
:100050000C94340011241FBECFE5D8E0DEBFCDBF25
:100060000E94FB050C9465070C940000CF93DF936E
:10007000CDB7DEB78AE390E02FEFFC01208387E362
:1000800090E0FC01108284E390E0FC01108281E3A7
:1000900090E0FC0110828BE390E0FC01108288E389
:1000A00090E0FC01108285E390E021E0FC012083D8
:1000B0008BE390E0FC0110820000DF91CF91089566
:1000C000CF93DF9300D00F92CDB7DEB789836A83D9
:1000D0004B838981843008F0F7C08A81883008F02A
:1000E000F3C08B81823008F0EFC08981882F90E0C7
:1000F0008330910509F4B3C0843091050CF0E6C05B
:100100008230910509F475C0833091050CF0DEC092
:10011000009719F00197B9F1D9C08B81882F90E031
:100120000097C9F0019709F0D3C08AE390E0FC0181
:100130008081482F8A81282F30E081E090E002C042
:10014000880F991F2A95E2F7242F282B8AE390E045
:10015000FC01208317C08AE390E0FC018081482FD6
:100160008A81282F30E081E090E002C0880F991F3B
:100170002A95E2F78095242F28238AE390E0FC015A
:1001800020830000A5C08B81882F90E00097C9F0E4
:10019000019709F09FC087E390E0FC018081482F20
:1001A0008A81282F30E081E090E002C0880F991FFB
:1001B0002A95E2F7242F282B87E390E0FC01208387
:1001C00017C087E390E0FC018081482F8A81282FA7
:1001D00030E081E090E002C0880F991F2A95E2F795
:1001E0008095242F282387E390E0FC0120830000E2
:1001F00071C08B81882F90E00097C9F0019709F0BA
:100200006BC084E390E0FC018081482F8A81282F15
:1002100030E081E090E002C0880F991F2A95E2F754
:10022000242F282B84E390E0FC01208317C084E373
:1002300090E0FC018081482F8A81282F30E081E006
:1002400090E002C0880F991F2A95E2F78095242F2D
:10025000282384E390E0FC01208300003DC08B81D3
:10026000882F90E00097C1F00197C1F581E390E0FD
:10027000FC018081482F8A81282F30E081E090E0C6
:1002800002C0880F991F2A95E2F7242F282B81E3BB
:1002900090E0FC01208317C081E390E0FC018081A5
:1002A000482F8A81282F30E081E090E002C0880F3B
:1002B000991F2A95E2F78095242F282381E390E067
:1002C000FC01208300000AC0000009C0000007C034
:1002D000000005C0000003C0000001C000000000D5
:1002E0000F900F900F90DF91CF910895CF93DF93F0
:1002F00000D00F92CDB7DEB789836A834B838981A3
:10030000843008F0F7C08A81883008F0F3C08B8110
:10031000823008F0EFC08981882F90E0833091050A
:1003200009F4B3C0843091050CF0E6C08230910529
:1003300009F475C0833091050CF0DEC0009719F008
:100340000197B9F1D9C08B81882F90E00097C9F04F
:10035000019709F0D3C08BE390E0FC018081482F26
:100360008A81282F30E081E090E002C0880F991F39
:100370002A95E2F7242F282B8BE390E0FC012083C1
:1003800017C08BE390E0FC018081482F8A81282FE1
:1003900030E081E090E002C0880F991F2A95E2F7D3
:1003A0008095242F28238BE390E0FC01208300001C
:1003B000A5C08B81882F90E00097C9F0019709F0C4
:1003C0009FC088E390E0FC018081482F8A81282F1C
:1003D00030E081E090E002C0880F991F2A95E2F793
:1003E000242F282B88E390E0FC01208317C088E3AA
:1003F00090E0FC018081482F8A81282F30E081E045
:1004000090E002C0880F991F2A95E2F78095242F6B
:10041000282388E390E0FC012083000071C08B81D9
:10042000882F90E00097C9F0019709F06BC085E331
:1004300090E0FC018081482F8A81282F30E081E004
:1004400090E002C0880F991F2A95E2F7242F282BED
:1004500085E390E0FC01208317C085E390E0FC0178
:100460008081482F8A81282F30E081E090E002C00F
:10047000880F991F2A95E2F78095242F282385E37A
:1004800090E0FC01208300003DC08B81882F90E02C
:100490000097C1F00197C1F582E390E0FC018081F3
:1004A000482F8A81282F30E081E090E002C0880F39
:1004B000991F2A95E2F7242F282B82E390E0FC0174
:1004C000208317C082E390E0FC018081482F8A815D
:1004D000282F30E081E090E002C0880F991F2A9514
:1004E000E2F78095242F282382E390E0FC0120830B
:1004F00000000AC0000009C0000007C0000005C0DD
:10050000000003C0000001C0000000000F900F9029
:100510000F90DF91CF910895CF93DF9300D0CDB7A7
:10052000DEB789836A838981843008F073C08A8149
:10053000883008F06FC08981882F90E08330910562
:1005400009F452C0843091050CF066C082309105E8
:10055000A9F1833091050CF05FC0009719F0019765
:10056000B9F05AC08BE390E0FC018081482F8A816A
:10057000282F30E081E090E002C0880F991F2A9573
:10058000E2F7242F28278BE390E0FC01208345C06D
:1005900088E390E0FC018081482F8A81282F30E099
:1005A00081E090E002C0880F991F2A95E2F7242F7E
:1005B000282788E390E0FC0120832FC085E390E0AA
:1005C000FC018081482F8A81282F30E081E090E073
:1005D00002C0880F991F2A95E2F7242F282785E368
:1005E00090E0FC01208319C082E390E0FC0180814F
:1005F000482F8A81282F30E081E090E002C0880FE8
:10060000991F2A95E2F7242F282782E390E0FC0126
:10061000208303C0000001C0000000000F900F9075
:10062000DF91CF910895CF93DF9300D00F92CDB794
:10063000DEB78A836B838A81843008F05FC08B8148
:10064000883008F05BC08A81882F90E08330910564
:1006500009F443C0843091050CF052C082309105FA
:1006600059F1833091050CF04BC0009719F00197B8
:1006700091F046C089E390E0FC018081882F90E0F2
:100680002B81222F30E002C0959587952A95E2F7BD
:100690008170898336C086E390E0FC018081882FD9
:1006A00090E02B81222F30E002C0959587952A9506
:1006B000E2F78170898325C083E390E0FC018081AB
:1006C000882F90E02B81222F30E002C095958795EE
:1006D0002A95E2F78170898314C080E390E0FC01E1
:1006E0008081882F90E02B81222F30E002C09595E9
:1006F00087952A95E2F78170898303C0000001C0C5
:10070000000089810F900F900F90DF91CF91089595
:10071000CF93DF9300D0CDB7DEB789836A83898119
:10072000843060F58981882F90E08330910501F154
:10073000843091052CF582309105A1F0833091052C
:10074000FCF4009719F0019739F01AC08AE390E0A1
:100750002A81FC01208315C087E390E02A81FC01F7
:1007600020830FC084E390E02A81FC01208309C02C
:1007700081E390E02A81FC01208303C0000001C0D6
:10078000000000000F900F90DF91CF910895CF935C
:10079000DF9300D0CDB7DEB789836A838981843047
:1007A00060F58981882F90E08330910501F18430D4
:1007B00091052CF582309105A1F083309105FCF470
:1007C000009719F0019739F01AC08BE390E02A8165
:1007D000FC01208315C088E390E02A81FC0120837E
:1007E0000FC085E390E02A81FC01208309C082E3E9
:1007F00090E02A81FC01208303C0000001C00000BA
:1008000000000F900F90DF91CF910895CF93DF9369
:1008100000D00F92CDB7DEB789836A834B834B81BB
:100820006A8189810E94760100000F900F900F90DD
:10083000DF91CF910895CF93DF9300D0CDB7DEB78E
:1008400089836A836A8189810E948C0200000F90EB
:100850000F90DF91CF910895CF93DF9300D0CDB764
:10086000DEB789836A838A81882F90E0092E000C85
:10087000AA0BBB0B8A309105A105B105B8F58959C2
:10088000984FFC010C9407066FE389810E94C7030F
:100890002EC066E089810E94C70329C06BE589816B
:1008A0000E94C70324C06FE489810E94C7031FC050
:1008B00066E689810E94C7031AC06DE689810E949D
:1008C000C70315C06DE789810E94C70310C067E0A8
:1008D00089810E94C7030BC06FE789810E94C7030B
:1008E00006C06FE689810E94C70301C000000000B6
:1008F0000F900F90DF91CF910895CF93DF93CDB7F5
:10090000DEB7AE970FB6F894DEBF0FBECDBF888BB3
:100910007A8B698B1982A8C0698188890E942C040E
:1009200089899A899C0140E050E02B8F3C8F4D8F44
:100930005E8F6B8D7C8D8D8D9E8D0E9441066B8BA5
:100940007C8B8D8B9E8B8B899C89AD89BE898A839C
:100950009B83AC83BD8320E030E04AEF54E46A819E
:100960007B818C819D810E94D0066F8F78A389A3A3
:100970009AA32F8D38A149A15AA12E833F8348877E
:10098000598720E030E040E85FE36E817F81888511
:1009900099850E940D0688232CF481E090E09B87C6
:1009A0008A8754C020E03FEF4FE757E46E817F8194
:1009B000888599850E94CB061816D4F520E030E092
:1009C00040E251E46A817B818C819D810E94D00646
:1009D0006BA37CA38DA39EA38BA19CA1ADA1BEA163
:1009E0008F8B988FA98FBA8F6F89788D898D9A8D0B
:1009F0000E9412066FA378A789A79AA7AFA1B8A5EE
:100A0000BB87AA8710C088EC90E09D878C878C8577
:100A10009D850197F1F79D878C8700008A859B85CE
:100A200001979B878A878A859B85892B61F719C0E7
:100A30006E817F81888599850E9412066BA77CA7AD
:100A40008DA79EA72BA53CA53B872A878A859B85DA
:100A50009F878E878E859F850197F1F79F878E8769
:100A6000000089818F5F898389818A3008F454CF9F
:100A700000000000AE960FB6F894DEBF0FBECDBFEB
:100A8000DF91CF910895CF93DF93CDB7DEB7AE97C7
:100A90000FB6F894DEBF0FBECDBF888B7A8B698B03
:100AA00089E08983698188890E942C0489899A89CF
:100AB0009C0140E050E02B8F3C8F4D8F5E8F6B8D03
:100AC0007C8D8D8D9E8D0E9441066B8B7C8B8D8BDA
:100AD0009E8B8B899C89AD89BE898A839B83AC83DD
:100AE000BD8320E030E04AEF54E46A817B818C8151
:100AF0009D810E94D0066F8F78A389A39AA32F8D22
:100B000038A149A15AA12E833F834887598720E005
:100B100030E040E85FE36E817F81888599850E949F
:100B20000D0688232CF481E090E09B878A8754C0CF
:100B300020E03FEF4FE757E46E817F8188859985FC
:100B40000E94CB061816D4F520E030E040E251E4D4
:100B50006A817B818C819D810E94D0066BA37CA3DE
:100B60008DA39EA38BA19CA1ADA1BEA18F8B988FBD
:100B7000A98FBA8F6F89788D898D9A8D0E94120600
:100B80006FA378A789A79AA7AFA1B8A5BB87AA87A3
:100B900010C088EC90E09D878C878C859D8501979F
:100BA000F1F79D878C8700008A859B8501979B873D
:100BB0008A878A859B85892B61F719C06E817F8121
:100BC000888599850E9412066BA77CA78DA79EA792
:100BD0002BA53CA53B872A878A859B859F878E8787
:100BE0008E859F850197F1F79F878E870000898109
:100BF0008150898357CFCF93DF93CDB7DEB70E9463
:100C000036006CEB72E080E00E947D04FACFEE0FBC
:100C1000FF1F0590F491E02D09940E947E0608F4D0
:100C200081E008950E94AA0688F09F5798F0B92F96
:100C30009927B751B0F0E1F0660F771F881F991F11
:100C40001AF0BA95C9F714C0B13091F00E94C406E9
:100C5000B1E008950C94C406672F782F8827B85FF9
:100C600039F0B93FCCF3869577956795B395D9F769
:100C70003EF490958095709561957F4F8F4F9F4F73
:100C80000895E89409C097FB3EF49095809570957F
:100C900061957F4F8F4F9F4F9923A9F0F92F96E9C8
:100CA000BB279395F695879577956795B795F1113D
:100CB000F8CFFAF4BB0F11F460FF1BC06F5F7F4FDA
:100CC0008F4F9F4F16C0882311F096E911C07723EC
:100CD00021F09EE8872F762F05C0662371F096E8F5
:100CE000862F70E060E02AF09A95660F771F881FC4
:100CF000DAF7880F9695879597F90895990F000868
:100D0000550FAA0BE0E8FEEF16161706E807F907DD
:100D1000C0F012161306E407F50798F0621B730B78
:100D2000840B950B39F40A2661F0232B242B252BF9
:100D300021F408950A2609F4A140A6958FEF811D9C
:100D4000811D089557FD9058440F551F59F05F3F7E
:100D500071F04795880F97FB991F61F09F3F79F0DD
:100D600087950895121613061406551FF2CF46955F
:100D7000F1DF08C0161617061806991FF1CF8695E1
:100D80007105610508940895E894BB2766277727C5
:100D9000CB0197F908950E947E0608F48FEF08951D
:100DA0000E94E3060C9454070E94460738F00E9404
:100DB0004D0720F0952311F00C943D070C94430748
:100DC00011240C94C5060E94A20670F3959FC1F3EE
:100DD000950F50E0551F629FF001729FBB27F00DE9
:100DE000B11D639FAA27F00DB11DAA1F649F66273E
:100DF000B00DA11D661F829F2227B00DA11D621F8D
:100E0000739FB00DA11D621F839FA00D611D221F46
:100E1000749F3327A00D611D231F849F600D211D2A
:100E2000822F762F6A2F11249F5750409AF0F1F0AD
:100E300088234AF0EE0FFF1FBB1F661F771F881F16
:100E400091505040A9F79E3F510580F00C943D070A
:100E50000C94C5065F3FE4F3983ED4F386957795EE
:100E60006795B795F795E7959F5FC1F7FE2B880FBC
:100E7000911D9695879597F9089597F99F6780E852
:100E800070E060E008959FEF80EC089500240A94DC
:100E90001616170618060906089500240A94121655
:100EA0001306140605060895092E0394000C11F488
:100EB000882352F0BB0F40F4BF2B11F460FF04C035
:100EC0006F5F7F4F8F4F9F4F0895F894FFCF44047B
:100ED00049044E04530458045D04620467046C041E
:020EE00071049B
:00000001FF
