:100000000C942A000C946D050C94A2050C94D70551
:100010000C943C000C943C000C943C000C943C0070
:100020000C943C000C943C000C943C000C943C0060
:100030000C943C000C943C000C943C000C943C0050
:100040000C943C000C943C000C943C000C943C0040
:100050000C943C0011241FBECFE5D8E0DEBFCDBF1D
:1000600020E0A0E6B0E001C01D92A636B207E1F79D
:100070000E943F080C94B2090C940000CF93DF93C8
:10008000CDB7DEB78AE390E02FEFFC01208387E352
:1000900090E0FC01108284E390E0FC01108281E397
:1000A00090E0FC0110828BE390E0FC01108288E379
:1000B00090E0FC01108285E390E021E0FC012083C8
:1000C0008BE390E024E0FC0120830000DF91CF91DE
:1000D0000895CF93DF9300D00F92CDB7DEB7898319
:1000E0006A834B838981843008F0F7C08A81883025
:1000F00008F0F3C08B81823008F0EFC08981882F2F
:1001000090E08330910509F4B3C0843091050CF080
:10011000E6C08230910509F475C0833091050CF07A
:10012000DEC0009719F00197B9F1D9C08B81882FF3
:1001300090E00097C9F0019709F0D3C08AE390E0FE
:10014000FC018081482F8A81282F30E081E090E0F7
:1001500002C0880F991F2A95E2F7242F282B8AE3E3
:1001600090E0FC01208317C08AE390E0FC018081CD
:10017000482F8A81282F30E081E090E002C0880F6C
:10018000991F2A95E2F78095242F28238AE390E08F
:10019000FC0120830000A5C08B81882F90E0009790
:1001A000C9F0019709F09FC087E390E0FC018081CE
:1001B000482F8A81282F30E081E090E002C0880F2C
:1001C000991F2A95E2F7242F282B87E390E0FC0162
:1001D000208317C087E390E0FC018081482F8A814B
:1001E000282F30E081E090E002C0880F991F2A9507
:1001F000E2F78095242F282387E390E0FC012083F9
:10020000000071C08B81882F90E00097C9F00197A2
:1002100009F06BC084E390E0FC018081482F8A8163
:10022000282F30E081E090E002C0880F991F2A95C6
:10023000E2F7242F282B84E390E0FC01208317C0F1
:1002400084E390E0FC018081482F8A81282F30E0F0
:1002500081E090E002C0880F991F2A95E2F780950F
:10026000242F282384E390E0FC01208300003DC07C
:100270008B81882F90E00097C1F00197C1F581E351
:1002800090E0FC018081482F8A81282F30E081E0B6
:1002900090E002C0880F991F2A95E2F7242F282B9F
:1002A00081E390E0FC01208317C081E390E0FC0132
:1002B0008081482F8A81282F30E081E090E002C0C1
:1002C000880F991F2A95E2F78095242F282381E330
:1002D00090E0FC01208300000AC0000009C000007B
:1002E00007C0000005C0000003C0000001C00000FE
:1002F00000000F900F900F90DF91CF910895CF9352
:10030000DF9300D00F92CDB7DEB789836A834B832A
:100310008981843008F0F7C08A81883008F0F3C002
:100320008B81823008F0EFC08981882F90E0833084
:10033000910509F4B3C0843091050CF0E6C0823019
:10034000910509F475C0833091050CF0DEC000976B
:1003500019F00197B9F1D9C08B81882F90E00097EF
:10036000C9F0019709F0D3C08BE390E0FC018081D4
:10037000482F8A81282F30E081E090E002C0880F6A
:10038000991F2A95E2F7242F282B8BE390E0FC019C
:10039000208317C08BE390E0FC018081482F8A8185
:1003A000282F30E081E090E002C0880F991F2A9545
:1003B000E2F78095242F28238BE390E0FC01208333
:1003C0000000A5C08B81882F90E00097C9F00197AD
:1003D00009F09FC088E390E0FC018081482F8A816A
:1003E000282F30E081E090E002C0880F991F2A9505
:1003F000E2F7242F282B88E390E0FC01208317C02C
:1004000088E390E0FC018081482F8A81282F30E02A
:1004100081E090E002C0880F991F2A95E2F780954D
:10042000242F282388E390E0FC012083000071C082
:100430008B81882F90E00097C9F0019709F06BC07D
:1004400085E390E0FC018081482F8A81282F30E0ED
:1004500081E090E002C0880F991F2A95E2F7242FCF
:10046000282B85E390E0FC01208317C085E390E012
:10047000FC018081482F8A81282F30E081E090E0C4
:1004800002C0880F991F2A95E2F78095242F282310
:1004900085E390E0FC01208300003DC08B81882F24
:1004A00090E00097C1F00197C1F582E390E0FC0174
:1004B0008081482F8A81282F30E081E090E002C0BF
:1004C000880F991F2A95E2F7242F282B82E390E0CA
:1004D000FC01208317C082E390E0FC018081482F5B
:1004E0008A81282F30E081E090E002C0880F991FB8
:1004F0002A95E2F78095242F282382E390E0FC01DF
:10050000208300000AC0000009C0000007C00000EE
:1005100005C0000003C0000001C0000000000F90F3
:100520000F900F90DF91CF910895CF93DF9300D07C
:10053000CDB7DEB789836A838981843008F073C0C0
:100540008A81883008F06FC08981882F90E08330DD
:10055000910509F452C0843091050CF066C08230D8
:100560009105A9F1833091050CF05FC0009719F057
:100570000197B9F05AC08BE390E0FC018081482FCD
:100580008A81282F30E081E090E002C0880F991F17
:100590002A95E2F7242F28278BE390E0FC012083A3
:1005A00045C088E390E0FC018081482F8A81282F94
:1005B00030E081E090E002C0880F991F2A95E2F7B1
:1005C000242F282788E390E0FC0120832FC085E3B7
:1005D00090E0FC018081482F8A81282F30E081E063
:1005E00090E002C0880F991F2A95E2F7242F282750
:1005F00085E390E0FC01208319C082E390E0FC01D8
:100600008081482F8A81282F30E081E090E002C06D
:10061000880F991F2A95E2F7242F282782E390E07C
:10062000FC01208303C0000001C0000000000F9007
:100630000F90DF91CF910895CF93DF9300D00F9269
:10064000CDB7DEB78A836B838A81843008F05FC0C0
:100650008B81883008F05BC08A81882F90E08330DE
:10066000910509F443C0843091050CF052C08230EA
:10067000910559F1833091050CF04BC0009719F0AA
:10068000019791F046C089E390E0FC018081882FBA
:1006900090E02B81222F30E002C0959587952A9516
:1006A000E2F78170898336C086E390E0FC018081A7
:1006B000882F90E02B81222F30E002C095958795FE
:1006C0002A95E2F78170898325C083E390E0FC01DD
:1006D0008081882F90E02B81222F30E002C09595F9
:1006E00087952A95E2F78170898314C080E390E0B2
:1006F000FC018081882F90E02B81222F30E002C006
:10070000959587952A95E2F78170898303C000004B
:1007100001C0000089810F900F900F90DF91CF9161
:100720000895CF93DF9300D0CDB7DEB789836A8376
:100730008981843060F58981882F90E0833091052C
:1007400001F1843091052CF582309105A1F08330C0
:100750009105FCF4009719F0019739F01AC08AE36B
:1007600090E02A81FC01208315C087E390E02A8174
:10077000FC0120830FC084E390E02A81FC012083E8
:1007800009C081E390E02A81FC01208303C00000BE
:1007900001C0000000000F900F90DF91CF910895ED
:1007A000CF93DF9300D0CDB7DEB789836A83898189
:1007B000843060F58981882F90E08330910501F1C4
:1007C000843091052CF582309105A1F0833091059C
:1007D000FCF4009719F0019739F01AC08BE390E010
:1007E0002A81FC01208315C088E390E02A81FC0166
:1007F00020830FC085E390E02A81FC01208309C09B
:1008000082E390E02A81FC01208303C0000001C044
:10081000000000000F900F90DF91CF910895CF93CB
:10082000DF9300D0CDB7DEB789836A8389818330B7
:1008300008F060C08A81843008F05CC08981882F0C
:1008400090E082309105C1F1833091050CF053C0E6
:10085000009719F00197A9F04EC085E590E0FC01E2
:10086000208185E590E02C7FFC01208385E590E0E8
:10087000FC01308185E590E02A81232BFC01208357
:100880003AC085E590E0FC01208185E590E0237F7A
:10089000FC01208385E590E0FC018081282F8A817E
:1008A000882F90E0880F991F880F991F282B85E5C6
:1008B00090E0FC0120831FC08A81882F90E0823065
:1008C000910519F0039759F016C084E590E0FC01FA
:1008D000208184E590E02F7BFC0120830AC084E521
:1008E00090E0FC01208184E590E02064FC012083FD
:1008F000000001C0000000000F900F90DF91CF9129
:100900000895CF93DF930F92CDB7DEB789838981A6
:10091000833060F58981882F90E082309105E1F085
:100920008330910524F5009719F0019759F01FC005
:100930008BE590E0FC0120818BE590E02064FC01D8
:10094000208315C08BE590E0FC0120818BE590E0D1
:100950002068FC0120830BC08BE590E0FC01208126
:100960008BE590E02062FC01208301C000000000C4
:100970000F90DF91CF910895CF93DF930F92CDB772
:10098000DEB789838981833060F58981882F90E083
:1009900082309105E1F08330910524F5009719F03C
:1009A000019759F01FC08BE590E0FC0120818BE599
:1009B00090E02F7BFC01208315C08BE590E0FC01CB
:1009C00020818BE590E02F77FC0120830BC08BE525
:1009D00090E0FC0120818BE590E02F7DFC012083DD
:1009E00001C0000000000F90DF91CF910895CF93D8
:1009F000DF930F92CDB7DEB789838981833060F5AD
:100A00008981882F90E082309105E1F08330910553
:100A100024F5009719F0019759F01FC08AE590E07E
:100A2000FC0120818AE590E02064FC01208315C050
:100A30008AE590E0FC0120818AE590E02068FC01D5
:100A400020830BC08AE590E0FC0120818AE590E0DC
:100A50002062FC01208301C0000000000F90DF91A4
:100A6000CF910895CF93DF9300D00F92CDB7DEB72B
:100A700089837B836A838981833038F58A819B816E
:100A8000892B19F18981882F90E082309105B1F08E
:100A900083309105DCF4009719F0019741F016C0FE
:100AA0008A819B8190936100809360000FC08A814E
:100AB0009B81909363008093620008C08A819B8130
:100AC000909365008093640001C0000000000F90C7
:100AD0000F900F90DF91CF9108951F920F920FB654
:100AE0000F9211242F933F934F935F936F937F93B4
:100AF0008F939F93AF93BF93EF93FF93CF93DF9326
:100B0000CDB7DEB78091600090916100892B31F004
:100B10008091600090916100FC0109950000DF91D7
:100B2000CF91FF91EF91BF91AF919F918F917F9165
:100B30006F915F914F913F912F910F900FBE0F904A
:100B40001F9018951F920F920FB60F9211242F939A
:100B50003F934F935F936F937F938F939F93AF9345
:100B6000BF93EF93FF93CF93DF93CDB7DEB7809121
:100B7000620090916300892B31F080916200909126
:100B80006300FC0109950000DF91CF91FF91EF9187
:100B9000BF91AF919F918F917F916F915F914F9195
:100BA0003F912F910F900FBE0F901F9018951F929D
:100BB0000F920FB60F9211242F933F934F935F9391
:100BC0006F937F938F939F93AF93BF93EF93FF9315
:100BD000CF93DF93CDB7DEB780916400909165002D
:100BE000892B31F08091640090916500FC0109959A
:100BF0000000DF91CF91FF91EF91BF91AF919F9155
:100C00008F917F916F915F914F913F912F910F90B5
:100C10000FBE0F901F901895CF93DF93CDB7DEB71F
:100C20008FE590E0FC0120818FE590E02068FC01D9
:100C300020830000DF91CF910895CF93DF93CDB74C
:100C4000DEB78FE590E0FC0120818FE590E02F7703
:100C5000FC0120830000DF91CF910895CF93DF93B3
:100C600000D00F92CDB7DEB789836A834B834B8167
:100C70006A8189810E947F0100000F900F900F9080
:100C8000DF91CF910895CF93DF9300D0CDB7DEB73A
:100C900089836A836A8189810E94950200000F908E
:100CA0000F90DF91CF910895CF93DF9300D0CDB710
:100CB000DEB789836A838A81882F90E0092E000C31
:100CC000AA0BBB0B8A309105A105B105B8F58C5470
:100CD000964FFC010C9454086FE389810E94D00365
:100CE0002EC066E089810E94D00329C06BE589810E
:100CF0000E94D00324C06FE489810E94D0031FC0EA
:100D000066E689810E94D0031AC06DE689810E943F
:100D1000D00315C06DE789810E94D00310C067E041
:100D200089810E94D0030BC06FE789810E94D003A4
:100D300006C06FE689810E94D00301C00000000058
:100D40000F900F90DF91CF910895CF93DF93CDB7A0
:100D5000DEB7AE970FB6F894DEBF0FBECDBF888B5F
:100D60007A8B698B1982A8C0698188890E94540690
:100D700089899A899C0140E050E02B8F3C8F4D8FF0
:100D80005E8F6B8D7C8D8D8D9E8D0E948E086B8B02
:100D90007C8B8D8B9E8B8B899C89AD89BE898A8348
:100DA0009B83AC83BD8320E030E04AEF54E46A814A
:100DB0007B818C819D810E941D096F8F78A389A3FF
:100DC0009AA32F8D38A149A15AA12E833F8348872A
:100DD000598720E030E040E85FE36E817F818885BD
:100DE00099850E945A0888232CF481E090E09B8723
:100DF0008A8754C020E03FEF4FE757E46E817F8140
:100E0000888599850E9418091816D4F520E030E0ED
:100E100040E251E46A817B818C819D810E941D09A1
:100E20006BA37CA38DA39EA38BA19CA1ADA1BEA10E
:100E30008F8B988FA98FBA8F6F89788D898D9A8DB6
:100E40000E945F086FA378A789A79AA7AFA1B8A54A
:100E5000BB87AA8710C088EC90E09D878C878C8523
:100E60009D850197F1F79D878C8700008A859B857A
:100E700001979B878A878A859B85892B61F719C093
:100E80006E817F81888599850E945F086BA77CA70A
:100E90008DA79EA72BA53CA53B872A878A859B8586
:100EA0009F878E878E859F850197F1F79F878E8715
:100EB000000089818F5F898389818A3008F454CF4B
:100EC00000000000AE960FB6F894DEBF0FBECDBF97
:100ED000DF91CF910895CF93DF93CDB7DEB7AE9773
:100EE0000FB6F894DEBF0FBECDBF888B7A8B698BAF
:100EF00089E08983A9C08981682F88890E94540666
:100F000089899A899C0140E050E02B8F3C8F4D8F5E
:100F10005E8F6B8D7C8D8D8D9E8D0E948E086B8B70
:100F20007C8B8D8B9E8B8B899C89AD89BE898A83B6
:100F30009B83AC83BD8320E030E04AEF54E46A81B8
:100F40007B818C819D810E941D096F8F78A389A36D
:100F50009AA32F8D38A149A15AA12E833F83488798
:100F6000598720E030E040E85FE36E817F8188852B
:100F700099850E945A0888232CF481E090E09B8791
:100F80008A8754C020E03FEF4FE757E46E817F81AE
:100F9000888599850E9418091816D4F520E030E05C
:100FA00040E251E46A817B818C819D810E941D0910
:100FB0006BA37CA38DA39EA38BA19CA1ADA1BEA17D
:100FC0008F8B988FA98FBA8F6F89788D898D9A8D25
:100FD0000E945F086FA378A789A79AA7AFA1B8A5B9
:100FE000BB87AA8710C088EC90E09D878C878C8592
:100FF0009D850197F1F79D878C8700008A859B85E9
:1010000001979B878A878A859B85892B61F719C001
:101010006E817F81888599850E945F086BA77CA778
:101020008DA79EA72BA53CA53B872A878A859B85F4
:101030009F878E878E859F850197F1F79F878E8783
:101040000000898181508983898188230CF053CFE6
:1010500000000000AE960FB6F894DEBF0FBECDBF05
:10106000DF91CF910895CF93DF93CDB7DEB760E0E6
:1010700080E00E9443060000DF91CF910895CF9356
:10108000DF93CDB7DEB70E943E0062E080E00E94B1
:101090000F0463E378E080E00E94320580E00E9464
:1010A00081040E940C06FFCFEE0FFF1F0590F49104
:1010B000E02D09940E94CB0808F481E008950E9475
:1010C000F70888F09F5798F0B92F9927B751B0F0DB
:1010D000E1F0660F771F881F991F1AF0BA95C9F7BC
:1010E00014C0B13091F00E941109B1E008950C9440
:1010F0001109672F782F8827B85F39F0B93FCCF3F3
:10110000869577956795B395D9F73EF49095809538
:10111000709561957F4F8F4F9F4F0895E89409C058
:1011200097FB3EF490958095709561957F4F8F4F1A
:101130009F4F9923A9F0F92F96E9BB279395F69530
:10114000879577956795B795F111F8CFFAF4BB0FAE
:1011500011F460FF1BC06F5F7F4F8F4F9F4F16C012
:10116000882311F096E911C0772321F09EE8872F9C
:10117000762F05C0662371F096E8862F70E060E058
:101180002AF09A95660F771F881FDAF7880F9695D1
:10119000879597F90895990F0008550FAA0BE0E875
:1011A000FEEF16161706E807F907C0F01216130629
:1011B000E407F50798F0621B730B840B950B39F469
:1011C0000A2661F0232B242B252B21F408950A26CF
:1011D00009F4A140A6958FEF811D811D089557FD4B
:1011E0009058440F551F59F05F3F71F04795880F95
:1011F00097FB991F61F09F3F79F08795089512162C
:1012000013061406551FF2CF4695F1DF08C01616D7
:1012100017061806991FF1CF869571056105089488
:101220000895E894BB2766277727CB0197F908959F
:101230000E94CB0808F48FEF08950E9430090C94A7
:10124000A1090E94930938F00E949A0920F0952381
:1012500011F00C948A090C94900911240C94120931
:101260000E94EF0870F3959FC1F3950F50E0551F52
:10127000629FF001729FBB27F00DB11D639FAA27EB
:10128000F00DB11DAA1F649F6627B00DA11D661F3A
:10129000829F2227B00DA11D621F739FB00DA11D5B
:1012A000621F839FA00D611D221F749F3327A00D15
:1012B000611D231F849F600D211D822F762F6A2FB1
:1012C00011249F5750409AF0F1F088234AF0EE0F16
:1012D000FF1FBB1F661F771F881F91505040A9F743
:1012E0009E3F510580F00C948A090C9412095F3FCF
:1012F000E4F3983ED4F3869577956795B795F7957F
:10130000E7959F5FC1F7FE2B880F911D96958795F6
:1013100097F9089597F99F6780E870E060E0089575
:101320009FEF80EC089500240A94161617061806FD
:101330000906089500240A941216130614060506D9
:101340000895092E0394000C11F4882352F0BB0F6A
:1013500040F4BF2B11F460FF04C06F5F7F4F8F4FCD
:101360009F4F0895F894FFCF6C06710676067B06B2
:0C137000800685068A068F069406990602
:00000001FF
