:100000000C942A000C943F000C943F000C943F0089
:100010000C943F000C943F000C943F000C943F0064
:100020000C943F000C943F000C943F000C943F0054
:100030000C943F000C943F000C943F000C943F0044
:100040000C943F000C943F000C943F000C943F0034
:100050000C943F0011241FBECFE5D8E0DEBFCDBF1A
:1000600010E0A0E6B0E0E2E4F8E102C005900D92F5
:10007000A836B107D9F70E94D20A0C941F0C0C9431
:100080000000CF93DF93CDB7DEB78AE390E02FEF88
:10009000FC01208387E390E0FC01108284E390E080
:1000A00027E0FC01208381E390E02FEFFC01208317
:1000B0008BE390E0FC01108288E390E0FC01108269
:1000C00085E390E0FC0110828BE390E0FC0110825C
:1000D0000000DF91CF910895CF93DF9300D00F926E
:1000E000CDB7DEB789836A834B838981843008F07A
:1000F000F7C08A81883008F0F3C08B81823008F025
:10010000EFC08981882F90E08330910509F4B3C056
:10011000843091050CF0E6C08230910509F475C079
:10012000833091050CF0DEC0009719F00197B9F10A
:10013000D9C08B81882F90E00097C9F0019709F012
:10014000D3C08AE390E0FC018081482F8A81282F68
:1001500030E081E090E002C0880F991F2A95E2F715
:10016000242F282B8AE390E0FC01208317C08AE328
:1001700090E0FC018081482F8A81282F30E081E0C7
:1001800090E002C0880F991F2A95E2F78095242FEE
:1001900028238AE390E0FC0120830000A5C08B8126
:1001A000882F90E00097C9F0019709F09FC087E37E
:1001B00090E0FC018081482F8A81282F30E081E087
:1001C00090E002C0880F991F2A95E2F7242F282B70
:1001D00087E390E0FC01208317C087E390E0FC01F7
:1001E0008081482F8A81282F30E081E090E002C092
:1001F000880F991F2A95E2F78095242F282387E3FB
:1002000090E0FC012083000071C08B81882F90E07A
:100210000097C9F0019709F06BC084E390E0FC01FE
:100220008081482F8A81282F30E081E090E002C051
:10023000880F991F2A95E2F7242F282B84E390E05A
:10024000FC01208317C084E390E0FC018081482FEB
:100250008A81282F30E081E090E002C0880F991F4A
:100260002A95E2F78095242F282384E390E0FC016F
:10027000208300003DC08B81882F90E00097C1F063
:100280000197C1F581E390E0FC018081482F8A81CC
:10029000282F30E081E090E002C0880F991F2A9556
:1002A000E2F7242F282B81E390E0FC01208317C084
:1002B00081E390E0FC018081482F8A81282F30E083
:1002C00081E090E002C0880F991F2A95E2F780959F
:1002D000242F282381E390E0FC01208300000AC042
:1002E000000009C0000007C0000005C0000003C0F6
:1002F000000001C0000000000F900F900F90DF91F0
:10030000CF910895CF93DF9300D00F92CDB7DEB792
:1003100089836A834B838981843008F0F7C08A819E
:10032000883008F0F3C08B81823008F0EFC08981FB
:10033000882F90E08330910509F4B3C08430910593
:100340000CF0E6C08230910509F475C08330910548
:100350000CF0DEC0009719F00197B9F1D9C08B817C
:10036000882F90E00097C9F0019709F0D3C08BE384
:1003700090E0FC018081482F8A81282F30E081E0C5
:1003800090E002C0880F991F2A95E2F7242F282BAE
:100390008BE390E0FC01208317C08BE390E0FC012D
:1003A0008081482F8A81282F30E081E090E002C0D0
:1003B000880F991F2A95E2F78095242F28238BE335
:1003C00090E0FC0120830000A5C08B81882F90E085
:1003D0000097C9F0019709F09FC088E390E0FC0105
:1003E0008081482F8A81282F30E081E090E002C090
:1003F000880F991F2A95E2F7242F282B88E390E095
:10040000FC01208317C088E390E0FC018081482F25
:100410008A81282F30E081E090E002C0880F991F88
:100420002A95E2F78095242F282388E390E0FC01A9
:100430002083000071C08B81882F90E00097C9F065
:10044000019709F06BC085E390E0FC018081482FA3
:100450008A81282F30E081E090E002C0880F991F48
:100460002A95E2F7242F282B85E390E0FC012083D6
:1004700017C085E390E0FC018081482F8A81282FF6
:1004800030E081E090E002C0880F991F2A95E2F7E2
:100490008095242F282385E390E0FC012083000031
:1004A0003DC08B81882F90E00097C1F00197C1F586
:1004B00082E390E0FC018081482F8A81282F30E080
:1004C00081E090E002C0880F991F2A95E2F7242F5F
:1004D000282B82E390E0FC01208317C082E390E0A8
:1004E000FC018081482F8A81282F30E081E090E054
:1004F00002C0880F991F2A95E2F78095242F2823A0
:1005000082E390E0FC01208300000AC0000009C0E3
:10051000000007C0000005C0000003C0000001C0CB
:10052000000000000F900F900F90DF91CF91089581
:10053000CF93DF9300D0CDB7DEB789836A838981FB
:10054000843008F073C08A81883008F06FC08981D8
:10055000882F90E08330910509F452C084309105D2
:100560000CF066C082309105A9F1833091050CF042
:100570005FC0009719F00197B9F05AC08BE390E083
:10058000FC018081482F8A81282F30E081E090E0B3
:1005900002C0880F991F2A95E2F7242F28278BE3A2
:1005A00090E0FC01208345C088E390E0FC0180815D
:1005B000482F8A81282F30E081E090E002C0880F28
:1005C000991F2A95E2F7242F282788E390E0FC0161
:1005D00020832FC085E390E0FC018081482F8A8131
:1005E000282F30E081E090E002C0880F991F2A9503
:1005F000E2F7242F282785E390E0FC01208319C02F
:1006000082E390E0FC018081482F8A81282F30E02E
:1006100081E090E002C0880F991F2A95E2F7242F0D
:10062000282782E390E0FC01208303C0000001C082
:10063000000000000F900F90DF91CF910895CF93AD
:10064000DF9300D00F92CDB7DEB78A836B838A81A8
:10065000843008F05FC08B81883008F05BC08A81ED
:10066000882F90E08330910509F443C084309105D0
:100670000CF052C08230910559F1833091050CF095
:100680004BC0009719F0019791F046C089E390E0C4
:10069000FC018081882F90E02B81222F30E002C066
:1006A000959587952A95E2F78170898336C086E310
:1006B00090E0FC018081882F90E02B81222F30E098
:1006C00002C0959587952A95E2F78170898325C0A8
:1006D00083E390E0FC018081882F90E02B81222F22
:1006E00030E002C0959587952A95E2F7817089835D
:1006F00014C080E390E0FC018081882F90E02B8182
:10070000222F30E002C0959587952A95E2F78170F7
:10071000898303C0000001C0000089810F900F9001
:100720000F90DF91CF910895CF93DF9300D0CDB795
:10073000DEB789836A838981843060F58981882F57
:1007400090E08330910501F1843091052CF58230E1
:100750009105A1F083309105FCF4009719F0019701
:1007600039F01AC08AE390E02A81FC01208315C089
:1007700087E390E02A81FC0120830FC084E390E0AE
:100780002A81FC01208309C081E390E02A81FC01D9
:10079000208303C0000001C0000000000F900F90F4
:1007A000DF91CF910895CF93DF9300D0CDB7DEB71F
:1007B00089836A838981843060F58981882F90E0FC
:1007C0008330910501F1843091052CF5823091053B
:1007D000A1F083309105FCF4009719F0019739F0EE
:1007E0001AC08BE390E02A81FC01208315C088E3C6
:1007F00090E02A81FC0120830FC085E390E02A81EC
:10080000FC01208309C082E390E02A81FC0120835F
:1008100003C0000001C0000000000F900F90DF91A6
:10082000CF910895CF93DF93CDB7DEB7A3970FB6DF
:10083000F894DEBF0FBECDBF8F8740E060E082E05E
:100840000E94820140E061E082E00E9482016F85A7
:1008500083E00E94D30341E062E082E00E948201D3
:1008600080E090E0A0E0B0E489839A83AB83BC830E
:1008700020E030E04AEF54E469817A818B819C81E9
:100880000E948A0B6C8B7D8B8E8B9F8B8C899D89B4
:10089000AE89BF898D839E83AF83B88720E030E027
:1008A00040E85FE36D817E818F8198850E94040B13
:1008B00088232CF481E090E09A87898754C020E057
:1008C0003FEF4FE757E46D817E818F8198850E94CD
:1008D000850B1816D4F520E030E040E251E4698140
:1008E0007A818B819C810E948A0B688F798F8A8F95
:1008F0009B8F888D998DAA8DBB8D888B998BAA8BA8
:10090000BB8B688979898A899B890E94090B6C8FC6
:100910007D8F8E8F9F8FAC8DBD8DBA87A98710C0BC
:1009200088EC90E09C878B878B859C850197F1F7FD
:100930009C878B87000089859A8501979A8789878C
:1009400089859A85892B61F719C06D817E818F8198
:1009500098850E94090B68A379A38AA39BA388A109
:1009600099A19A87898789859A859E878D878D85A4
:100970009E850197F1F79E878D87000040E062E039
:1009800082E00E9482010000A3960FB6F894DEBFB9
:100990000FBECDBFDF91CF910895CF93DF93CDB739
:1009A000DEB7A3970FB6F894DEBF0FBECDBF8F871B
:1009B00041E060E082E00E94820140E061E082E08C
:1009C0000E9482016F8583E00E94D30341E062E0D0
:1009D00082E00E94820180E090E0A0E0B0E48983A0
:1009E0009A83AB83BC8320E030E04AEF54E4698112
:1009F0007A818B819C810E948A0B6C8B7D8B8E8B84
:100A00009F8B8C899D89AE89BF898D839E83AF839F
:100A1000B88720E030E040E85FE36D817E818F8120
:100A200098850E94040B88232CF481E090E09A873B
:100A3000898754C020E03FEF4FE757E46D817E8106
:100A40008F8198850E94850B1816D4F520E030E040
:100A500040E251E469817A818B819C810E948A0BFA
:100A6000688F798F8A8F9B8F888D998DAA8DBB8D8A
:100A7000888B998BAA8BBB8B688979898A899B899A
:100A80000E94090B6C8F7D8F8E8F9F8FAC8DBD8DDB
:100A9000BA87A98710C088EC90E09C878B878B85EC
:100AA0009C850197F1F79C878B87000089859A8543
:100AB00001979A87898789859A85892B61F719C05B
:100AC0006D817E818F8198850E94090B68A379A32F
:100AD0008AA39BA388A199A19A87898789859A85EA
:100AE0009E878D878D859E850197F1F79E878D87DF
:100AF000000040E062E082E00E9482010000A396D4
:100B00000FB6F894DEBF0FBECDBFDF91CF91089531
:100B1000CF93DF93CDB7DEB7C858D1090FB6F8949D
:100B2000DEBF0FBECDBF80E090E0A0E0B2E48BA7B7
:100B30009CA7ADA7BEA720E030E04AEF54E46BA528
:100B40007CA58DA59EA50E948A0B2D966CAF7DAFCE
:100B50008EAF9FAF2D972D968CAD9DADAEADBFAD39
:100B60002D978FA798ABA9ABBAAB20E030E040E857
:100B70005FE36FA578A989A99AA90E94040B88232D
:100B80002CF481E090E09CAB8BAB65C020E03FEFA4
:100B90004FE757E46FA578A989A99AA90E94850B08
:100BA00018160CF046C020E030E040E251E46BA59E
:100BB0007CA58DA59EA50E948A0B61966CAF7DAF2A
:100BC0008EAF9FAF619761968CAD9DADAEADBFAD61
:100BD000619729968CAF9DAFAEAFBFAF299729968D
:100BE0006CAD7DAD8EAD9FAD29970E94090B6596CA
:100BF0006CAF7DAF8EAF9FAF65976396AEADBFAD67
:100C00006397BCABABAB10C088EC90E09EAB8DABF8
:100C10008DA99EA90197F1F79EAB8DAB00008BA922
:100C20009CA901979CAB8BAB8BA99CA9892B61F7E5
:100C30001DC06FA578A989A99AA90E94090B699678
:100C40006CAF7DAF8EAF9FAF699767968EAD9FAD4E
:100C500067979CAB8BAB8BA99CA998AF8FAB8FA9E7
:100C600098AD0197F1F798AF8FAB000088E30E9431
:100C7000120480E090E0A0E8BFE38D8F9E8FAF8FDD
:100C8000B8A320E030E04AEF54E46D8D7E8D8F8D67
:100C900098A10E948A0B6D966CAF7DAF8EAF9FAF0F
:100CA0006D976D968CAD9DADAEADBFAD6D9789A3C3
:100CB0009AA3ABA3BCA320E030E040E85FE369A1C6
:100CC0007AA18BA19CA10E94040B88232CF481E0C3
:100CD00090E09EA38DA365C020E03FEF4FE757E46F
:100CE00069A17AA18BA19CA10E94850B18160CF01A
:100CF00046C020E030E040E251E46D8D7E8D8F8D66
:100D000098A10E948A0BA1966CAF7DAF8EAF9FAF6A
:100D1000A197A1968CAD9DADAEADBFADA197259627
:100D20008CAF9DAFAEAFBFAF259725966CAD7DADB7
:100D30008EAD9FAD25970E94090BA5966CAF7DAF38
:100D40008EAF9FAFA597A396AEADBFADA397BEA341
:100D5000ADA310C088EC90E098A78FA38FA198A5B1
:100D60000197F1F798A78FA300008DA19EA101978D
:100D70009EA38DA38DA19EA1892B61F71DC069A1A2
:100D80007AA18BA19CA10E94090BA9966CAF7DAFA3
:100D90008EAF9FAFA997A7968EAD9FADA7979EA345
:100DA0008DA38DA19EA19AA789A789A59AA5019730
:100DB000F1F79AA789A7000081E00E94120480E061
:100DC00090E0A0E8BFE38F87988BA98BBA8B20E0D7
:100DD00030E04AEF54E46F85788989899A890E94C6
:100DE0008A0BAD966CAF7DAF8EAF9FAFAD97AD96D2
:100DF0008CAD9DADAEADBFADAD978B8B9C8BAD8BF0
:100E0000BE8B20E030E040E85FE36B897C898D8910
:100E10009E890E94040B88232CF481E090E0988F37
:100E20008F8B65C020E03FEF4FE757E46B897C89EB
:100E30008D899E890E94850B18160CF046C020E013
:100E400030E040E251E46F85788989899A890E946F
:100E50008A0BE1966CAF7DAF8EAF9FAFE197E196C5
:100E60008CAD9DADAEADBFADE19721968CAF9DAF82
:100E7000AEAFBFAF219721966CAD7DAD8EAD9FAD6E
:100E800021970E94090BE5966CAF7DAF8EAF9FAFA7
:100E9000E597E396AEADBFADE397B88FAF8B10C0CB
:100EA00088EC90E09A8F898F898D9A8D0197F1F760
:100EB0009A8F898F00008F89988D0197988F8F8BDB
:100EC0008F89988D892B61F71DC06B897C898D89ED
:100ED0009E890E94090BE9966CAF7DAF8EAF9FAFE4
:100EE000E997E7968EAD9FADE797988F8F8B8F89A7
:100EF000988D9C8F8B8F8B8D9C8D0197F1F79C8F9C
:100F00008B8F000081E00E94120480E090E0A0E05E
:100F1000B0E489839A83AB83BC8320E030E04AEF5E
:100F200054E469817A818B819C810E948A0BED96C1
:100F30006CAF7DAF8EAF9FAFED97ED968CAD9DAD55
:100F4000AEADBFADED978D839E83AF83B88720E0B4
:100F500030E040E85FE36D817E818F8198850E945B
:100F6000040B88232CF481E090E09A8789876DC078
:100F700020E03FEF4FE757E46D817E818F819885B8
:100F80000E94850B18160CF04AC020E030E040E2C9
:100F900051E469817A818B819C810E948A0BC358BC
:100FA000DF4F688379838A839B83CD57D040C358B2
:100FB000DF4F88819981AA81BB81CD57D04089AF0D
:100FC0009AAFABAFBCAF69AD7AAD8BAD9CAD0E94B3
:100FD000090BCF57DF4F688379838A839B83C1587E
:100FE000D040CF57DF4FA881B981C158D040BA87D0
:100FF000A98710C088EC90E09C878B878B859C85A7
:101000000197F1F79C878B87000089859A85019766
:101010009A87898789859A85892B61F721C06D8197
:101020007E818F8198850E94090BCB57DF4F6883A3
:1010300079838A839B83C558D040CB57DF4F888103
:101040009981C558D0409A87898789859A859E87D6
:101050008D878D859E850197F1F79E878D8700008E
:1010600086E00E9412040000C857DF4F0FB6F894C4
:10107000DEBF0FBECDBFDF91CF910895CF93DF9339
:1010800000D0CDB7DEB79A8389830BC089819A815E
:101090009C012F5F3F4F3A832983FC0180810E948E
:1010A000CD0489819A81FC018081882379F7000031
:1010B00000000F900F90DF91CF910895CF93DF93B1
:1010C000CDB7DEB7A2970FB6F894DEBF0FBECDBF87
:1010D00081E00E94120480E090E0A0E0B0E4898307
:1010E0009A83AB83BC8320E030E04AEF54E469810B
:1010F0007A818B819C810E948A0B6B8B7C8B8D8B80
:101100009E8B8B899C89AD89BE898D839E83AF839D
:10111000B88720E030E040E85FE36D817E818F8119
:1011200098850E94040B88232CF481E090E09A8734
:10113000898754C020E03FEF4FE757E46D817E81FF
:101140008F8198850E94850B1816D4F520E030E039
:1011500040E251E469817A818B819C810E948A0BF3
:101160006F8B788F898F9A8F8F89988DA98DBA8D83
:101170008F87988BA98BBA8B6F85788989899A8993
:101180000E94090B6B8F7C8F8D8F9E8FAB8DBC8DDA
:10119000BA87A98710C088EC90E09C878B878B85E5
:1011A0009C850197F1F79C878B87000089859A853C
:1011B00001979A87898789859A85892B61F719C054
:1011C0006D817E818F8198850E94090B6F8F78A336
:1011D00089A39AA38F8D98A19A87898789859A85F3
:1011E0009E878D878D859E850197F1F79E878D87D8
:1011F00000000000A2960FB6F894DEBF0FBECDBF70
:10120000DF91CF910895CF93DF93CDB7DEB7A49749
:101210000FB6F894DEBF0FBECDBF8F87688B8F856A
:10122000882F90E08130910519F0029731F00AC0C3
:10123000888981580E94120405C0888981540E94BF
:101240001204000080E090E0A0E8BFE389839A8365
:10125000AB83BC8320E030E04AEF54E469817A81BB
:101260008B819C810E948A0B6D8B7E8B8F8B988FDC
:101270008D899E89AF89B88D8D839E83AF83B88712
:1012800020E030E040E85FE36D817E818F819885CA
:101290000E94040B88232CF481E090E09A878987D0
:1012A00054C020E03FEF4FE757E46D817E818F818E
:1012B00098850E94850B1816D4F520E030E040E2B6
:1012C00051E469817A818B819C810E948A0B698FAC
:1012D0007A8F8B8F9C8F898D9A8DAB8DBC8D898BEE
:1012E0009A8BAB8BBC8B69897A898B899C890E948C
:1012F000090B6D8F7E8F8F8F98A3AD8DBE8DBA87B2
:10130000A98710C088EC90E09C878B878B859C8593
:101310000197F1F79C878B87000089859A85019753
:101320009A87898789859A85892B61F719C06D818C
:101330007E818F8198850E94090B69A37AA38BA374
:101340009CA389A19AA19A87898789859A859E8776
:101350008D878D859E850197F1F79E878D8700008B
:101360000000A4960FB6F894DEBF0FBECDBFDF918C
:10137000CF910895CF92DF92EF92FF920F931F9338
:10138000CF93DF93CDB7DEB7A0970FB6F894DEBF4B
:101390000FBECDBF6D837E838F83988781E090E001
:1013A000A0E0B0E089839A83AB83BC838D819E816A
:1013B000AF81B885892B8A2B8B2B09F05AC080E32B
:1013C0000E94CD0456C049815A816B817C81DB012A
:1013D000CA01880F991FAA1FBB1F880F991FAA1F38
:1013E000BB1F840F951FA61FB71F880F991FAA1F29
:1013F000BB1F6C017D018D819E81AF81B88589877E
:101400009A87AB87BC870AE010E020E030E069856E
:101410007A858B859C85A90198010E94E20A6D87D7
:101420007E878F87988B8D859E85AF85B8898C0D3B
:101430009D1DAE1DBF1D89839A83AB83BC838D81A7
:101440009E81AF81B885898B9A8BAB8BBC8B0AE070
:1014500010E020E030E069897A898B899C89A901B4
:1014600098010E94E20ADA01C9018D839E83AF834D
:10147000B8878D819E81AF81B885892B8A2B8B2B74
:1014800009F0A1CF39C089819A81AB81BC818D8B54
:101490009E8BAF8BB88F0AE010E020E030E06D89C2
:1014A0007E898F89988DA90198010E94E20A698F2F
:1014B0007A8F8B8F9C8F898D9A8DAB8DBC8D805D43
:1014C0000E94CD0489819A81AB81BC818D8F9E8FD2
:1014D000AF8FB8A30AE010E020E030E06D8D7E8D84
:1014E0008F8D98A1A90198010E94E20ADA01C90131
:1014F00089839A83AB83BC8389819A81AB81BC81C8
:101500000197A105B10509F0BECF00000000A0962B
:101510000FB6F894DEBF0FBECDBFDF91CF911F9104
:101520000F91FF90EF90DF90CF900895CF93DF93CE
:1015300000D000D000D00F92CDB7DEB79C838B8354
:101540006D834E832F838D81880F880F880F8A8348
:101550008A8180648A838A810E94120419820EC063
:101560008981882F90E02B813C81820F931FFC01A1
:1015700080810E94CD0489818F5F89838981883031
:1015800078F36F818E810E9403098D810E94CD04C2
:10159000000027960FB6F894DEBF0FBECDBFDF91D7
:1015A000CF910895CF93DF93CDB7DEB70E9441006E
:1015B0000E94880527E041E060E080E690E00E941C
:1015C000960AFFCFA1E21A2EAA1BBB1BFD010DC07C
:1015D000AA1FBB1FEE1FFF1FA217B307E407F507E3
:1015E00020F0A21BB30BE40BF50B661F771F881FBF
:1015F000991F1A9469F760957095809590959B0155
:10160000AC01BD01CF0108950E94380B08F481E0C0
:1016100008950E94640B88F09F5798F0B92F99277E
:10162000B751B0F0E1F0660F771F881F991F1AF0CD
:10163000BA95C9F714C0B13091F00E947E0BB1E0A9
:1016400008950C947E0B672F782F8827B85F39F0A8
:10165000B93FCCF3869577956795B395D9F73EF466
:1016600090958095709561957F4F8F4F9F4F08950E
:10167000990F0008550FAA0BE0E8FEEF16161706A3
:10168000E807F907C0F012161306E407F50798F00B
:10169000621B730B840B950B39F40A2661F0232B24
:1016A000242B252B21F408950A2609F4A140A695A0
:1016B0008FEF811D811D089557FD9058440F551FD0
:1016C00059F05F3F71F04795880F97FB991F61F0C4
:1016D0009F3F79F087950895121613061406551F3B
:1016E000F2CF4695F1DF08C0161617061806991FA7
:1016F000F1CF86957105610508940895E894BB279C
:1017000066277727CB0197F908950E94380B08F4D4
:101710008FEF08950E949D0B0C940E0C0E94000CFC
:1017200038F00E94070C20F0952311F00C94F70B71
:101730000C94FD0B11240C947F0B0E945C0B70F336
:10174000959FC1F3950F50E0551F629FF001729F66
:10175000BB27F00DB11D639FAA27F00DB11DAA1F75
:10176000649F6627B00DA11D661F829F2227B00DC2
:10177000A11D621F739FB00DA11D621F839FA00D4D
:10178000611D221F749F3327A00D611D231F849F9D
:10179000600D211D822F762F6A2F11249F575040F4
:1017A0009AF0F1F088234AF0EE0FFF1FBB1F661F6F
:1017B000771F881F91505040A9F79E3F510580F038
:1017C0000C94F70B0C947F0B5F3FE4F3983ED4F33B
:1017D000869577956795B795F795E7959F5FC1F7DC
:1017E000FE2B880F911D9695879597F9089597F987
:1017F0009F6780E870E060E008959FEF80EC0895B7
:1018000000240A94161617061806090608950024DF
:101810000A9412161306140605060895092E039459
:10182000000C11F4882352F0BB0F40F4BF2B11F4CD
:1018300060FF04C06F5F7F4F8F4F9F4F0895F894F4
:02184000FFCFD8
:08184200000A150A0400000071
:00000001FF
